:020000040000FA
:040000003BEF00F0E2
:06000800348247EF05F011
:100018003480D8CF0CF0E8CF0DF0E0CF0EF0F6CF5B
:100028000FF0F7CF10F0F8CF11F0F5CF12F09EAA2D
:1000380020EF00F022EF00F02BEF00F067EC04F067
:10004800010E0001FC6F010EFD6F8C84AE5012C0D2
:10005800F5FF11C0F8FF10C0F7FF0FC0F6FF0EC084
:10006800E0FF0DC0E8FF0CC0D8FF3490100075EF1A
:0200780006F090
:0B030000004E6F204D61746368000028
:10030C00720ED36ED3A48DEF01F08FEF01F088EF56
:10031C0001F08B968B988C94948694989594000EFF
:10032C009E6EF28EF28CD08EF2889D8A9F9A51EC42
:10033C0007F07FEC05F0E4EC04F042EC07F0000E63
:10034C000001EA6F000EEB6F790EEC6F0F0EED6F84
:10035C00780EEE6F0F0EEF6F000EF06F000EF26F57
:10036C00C70EF16F000EF36F000EF46F770EF56F82
:10037C000F0EF66F760EF76F0F0EF86F020EF96F09
:10038C00000EFB6FC70EFA6FF30E1A6E000E1B6E8B
:10039C008BEC03F0EA0E1A6E000E1B6E8BEC03F066
:1003AC00000E0001E96F000EE46F030EE36F200EE8
:1003BC00E26F0001FE05D8A4E6EF01F0E8EF01F0D2
:1003CC005CEF03F0000EE66F000EE56F000EE86FB9
:1003DC00000EE76F12EF02F0E50E146E000E156EB4
:1003EC00E70E166E000E176E2CEC06F0F30E276E51
:1003FC00000E286EEA0E296E000E2A6E020E2B6E6F
:10040C0004EC06F0600E0001E925D96EDA6A000EE4
:10041C00DA22020EDF6EE92BE6BF1EEF02F0DC0ED5
:10042C00E55D050EE659D8A01EEF02F020EF02F0B4
:10043C002EEF02F0E8BF2EEF02F0DC0EE75D050EAA
:10044C00E859D8B02CEF02F02EEF02F03EEF02F09C
:10045C00FE05D8A434EF02F036EF02F03EEF02F0C6
:10046C00FC51D8B43CEF02F03EEF02F0F2EF01F099
:10047C00010EFC6FFD05D8A446EF02F048EF02F028
:10048C0073EF02F05EEF02F0E907F30E276E000E39
:10049C00286EEA0E296E000E2A6E600EE925D96EC2
:1004AC00DA6A000EDA22DF50FF0A2B6E04EC06F03B
:1004BC000001E951D8A465EF02F067EF02F04AEFB2
:1004CC0002F0F30E226E000E236EEA0E246E000E66
:1004DC00256EACEC05F0DFEF01F0F30E276E000E8D
:1004EC00286EEA0E296E000E2A6E000E2B6E04EC9E
:1004FC0006F0600E0001E925D96EDA6A000EDA22E8
:10050C00000EDF6EE92BE50E146E000E156EE70E75
:10051C00166E000E176E2CEC06F00001E251E7256A
:10052C002C6EE351E8212D6EE5512C5C2D50800A88
:10053C002E6EE651800A2E58D8B0A7EF02F0A9EF24
:10054C0002F0F9EF02F0E42BD8EF02F0E50E146E96
:10055C00000E156EE70E166E000E176E2CEC06F0E4
:10056C00030E0001E419D8A4BEEF02F0C0EF02F0B4
:10057C00A9EF02F0F30E276E000E286EEA0E296E1C
:10058C00000E2A6E020E2B6E04EC06F0600E0001BB
:10059C00E925D96EDA6A000EDA22020EDF6EE92B3B
:1005AC00A9EF02F0E251E7252C6EE351E8212D6E04
:1005BC00E5512C5C2D50800A2E6EE651800A2E5887
:1005CC00D8B0EBEF02F0EDEF02F0F5EF02F0030E16
:1005DC00E465F3EF02F0F5EF02F0ACEF02F0000E81
:1005EC00E46FDFEF01F0E251E5252C6EE351E621DB
:1005FC002D6EE7512C5C2D50800A2E6EE851800A2E
:10060C002E58D8B00CEF03F00EEF03F087EF03F089
:10061C00E42B3DEF03F0E50E146E000E156EE70EA5
:10062C00166E000E176E2CEC06F0030E0001E4198A
:10063C00D8A423EF03F025EF03F00EEF03F0F30E35
:10064C00276E000E286EEA0E296E000E2A6E010E21
:10065C002B6E04EC06F0600E0001E925D96EDA6A07
:10066C00000EDA22010EDF6EE92B0EEF03F0E251E1
:10067C00E5252C6EE351E6212D6EE7512C5C2D50B7
:10068C00800A2E6EE851800A2E58D8B050EF03F035
:10069C0052EF03F0F5EF02F0030EE46558EF03F0B0
:1006AC005AEF03F011EF03F0F5EF02F0FF05D8A4B9
:1006BC0062EF03F064EF03F0DFEF01F0F30E226E54
:1006CC00000E236EEA0E246E000E256EACEC05F0C7
:1006DC00000E0001FF6F8C947DEF03F0E907600EB4
:1006EC00E925D96EDA6A000EDA22000EDF6EE951C6
:1006FC00D8A483EF03F085EF03F074EF03F0DFEF82
:10070C0001F0DFEF01F03BEF00F01AC0D9FF1BC086
:10071C00DAFFDF501C6E1C50146E156A20EE07F0C9
:10072C001A50D9261B50DA22DECF16F0DDCF17F087
:10073C002FEC07F014C020F015C021F020EE01F0D2
:10074C001A50D9261B50DA22DF50D8B4B0EF03F080
:10075C00B2EF03F0E0EF03F020C01CF021C01DF05D
:10076C00090E1E6E1D341D321C321E2EB8EF03F006
:10077C0020501C2621501D22070E1F6E1D341D32C9
:10078C001C321F2EC4EF03F01CC020F01DC021F042
:10079C0020EE07F01A50D9261B50DA22DECF1CF0BF
:1007AC00DDCF1DF020501C5C206E21501D58216E99
:1007BC00FCEF03F020C01CF021C01DF0090E1E6ED2
:1007CC001D341D321C321E2EE6EF03F020501C2669
:1007DC0021501D22070E1F6E1D341D321C321F2E80
:1007EC00F2EF03F01CC020F01DC021F020C01CF063
:1007FC0021C01DF0D8901C361D36D8901C361D36E5
:10080C001CC020F01DC021F020EE02F01A50D92699
:10081C001B50DA22DECF1CF0DDCF1DF01CC0D9FF3F
:10082C001DC0DAFF20C0DFFF20EE04F01A50D926DD
:10083C001B50DA22DECF1CF0DDCF1DF01CC0D9FF1F
:10084C001DC0DAFF21503F0BDF6E20EE01F01A5075
:10085C00D9261B50DA22DF50D8B437EF04F039EF29
:10086C0004F050EF04F020EE06F01A50D9261B507D
:10087C00DA22DF501C6E010E1D6E1C2A48EF04F0AC
:10088C00D8901D361C2E46EF04F01D508A108A6E2F
:10089C0066EF04F020EE06F01A50D9261B50DA222F
:1008AC00DF501C6E010E1D6E1C2A5FEF04F0D890F9
:1008BC001D361C2E5DEF04F01D50FF0A8A148A6E43
:1008CC001200010E98EC06F0000E056E010E13ECF2
:1008DC0007F05DEC07F02F6E020E2F18D8A479EFFD
:1008EC0004F07BEF04F0E3EF04F0DAEF04F05DECDE
:1008FC0007F02F6E0D0E336086EF04F088EF04F0D6
:10090C00DAEF04F0010E056E2F5013EC07F0400ED9
:10091C002F6493EF04F095EF04F09AEF04F02F504E
:10092C00C90F2F6E9DEF04F02F50D00F2F6E2F504C
:10093C003110316E33A0A5EF04F0A7EF04F0ACEF4B
:10094C0004F03138F00B316ED8EF04F00B0E33603D
:10095C00B2EF04F0B4EF04F0B9EF04F030503118FA
:10096C00306ED6EF04F031503018D8A4C0EF04F03C
:10097C00C2EF04F0CDEF04F0020E98EC06F0040E7A
:10098C00096E030E0A6E51EC06F0D6EF04F0020E5F
:10099C0098EC06F0010E096E030E0A6E51EC06F08F
:1009AC00000E316E3328336E0A0E2F18D8A4E1EFE7
:1009BC0004F0E3EF04F07DEF04F01200899C929CAC
:1009CC008B9094908B9294928B9494948C90959011
:1009DC008C929592340E1B6EF20EE82EFED71B2EC7
:1009EC00FCD7030EBBEC06F00D0E1B6EFC0EE82EB6
:1009FC00FED71B2EFCD7030EBBEC06F0850EE82EA3
:100A0C00FED700F0030EBBEC06F0210EE82EFED74D
:100A1C0000F0020EBBEC06F0210EE82EFED700F023
:100A2C00000E176E280EF7EC06F0210EE82EFED7FE
:100A3C0000F0000E176E080EF7EC06F0210EE82EF3
:100A4C00FED700F0000E176E010EF7EC06F00D0E3F
:100A5C001B6EFC0EE82EFED71B2EFCD7000E176E5D
:100A6C00060EF7EC06F0210EE82EFED700F0000E75
:100A7C00176E0C0EF7EC06F0210EE82EFED700F0E8
:100A8C001200F2A24CEF05F04EEF05F07DEF05F0F1
:100A9C00322A1E0E3218D8A456EF05F058EF05F086
:100AAC007DEF05F0000E326E000E0001FC6F000EA3
:100ABC00FD6FFE51D8B465EF05F068EF05F0010E3F
:100ACC0069EF05F0000EFE6F010EFF6F8BA871EF42
:100ADC0005F075EF05F0016A012A76EF05F0016A61
:100AEC00013A8B500118EF0B01188B6EF292349275
:100AFC0011008A9093908A9293928A9493948A96F6
:100B0C009396000E7F6E800E7E6E6F0E6F6E000ED3
:100B1C006E6EC70E7B6E000E7A6E000E796E000E36
:100B2C00786E000E776E000E766E000E756E000EEF
:100B3C00746E000E736E000E726E8F0E796E010E57
:100B4C00786E8F0E776E010E766E1200CBEF05F07D
:100B5C0022C01AF023C01BF08BEC03F024C01AF057
:100B6C0025C01BF08BEC03F024C0D9FF25C0DAFFA5
:100B7C00DF060D0E266EFC0EE82EFED7262EFCD7B9
:100B8C0022C0D9FF23C0DAFFDF0622C0D9FF23C061
:100B9C00DAFFDF50D8A4D5EF05F0D7EF05F0AEEFB4
:100BAC0005F01200F7EF05F022C01AF023C01BF07D
:100BBC008BEC03F024C01AF025C01BF08BEC03F077
:100BCC0024C0D9FF25C0DAFFDF2A0D0E266EFC0EDD
:100BDC00E82EFED7262EFCD722C0D9FF23C0DAFF81
:100BEC00DF2A22C0D9FF23C0DAFF640EDF6401EFD5
:100BFC0006F003EF06F0DAEF05F0120020EE01F03C
:100C0C002750D9262850DA22D8902B30010BDF6ED2
:100C1C0020EE01F02950D9262A50DA222B50010B54
:100C2C00DF6E27C022F028C023F029C024F02AC090
:100C3C0025F0D8EC05F027C022F028C023F029C0FD
:100C4C0024F02AC025F0ACEC05F012006750196EA8
:100C5C00186A66501A6E1B6A18501A1219501B1219
:100C6C0014C0D9FF15C0DAFF1AC0DEFF1BC0DDFFB0
:100C7C006550196E186A64501A6E1B6A18501A1255
:100C8C0019501B1216C0D9FF17C0DAFF1AC0DEFFAD
:100C9C001BC0DDFF120066EF06F0010E056E09C0E9
:100CAC00F6FF0AC0F7FF0800F55013EC07F0094AED
:100CBC000A2A820E0B6EDE0EE82EFED70B2EFCD708
:100CCC0009C0F6FF0AC0F7FF0800F5500009D8A4C8
:100CDC0072EF06F074EF06F053EF06F01200E90E17
:100CEC00F66E0E0EF76E000EF86E0900F5CFFFF0E3
:100CFC00E80EF66E0E0EF76E000EF86E0900F5CFCC
:100D0C0033F00001FE6BFD6BFC6B326A316A306AAA
:100D1C002F6A34903492000EF86E030EF76E0001B9
:100D2C0086EF01F0096E0904D8A49FEF06F0A1EF3D
:100D3C0006F0A8EF06F0000E056E800E13EC07F01F
:100D4C00B6EF06F0020E0918D8A4AFEF06F0B1EF1B
:100D5C0006F0B6EF06F0000E056EC00E13EC07F0B1
:100D6C00210EE82EFED700F01200166E8BCF14F079
:100D7C00F90E141616C015F0030E1516D89015346E
:100D8C0014108B6E8CCF14F0FC0E14161640E84227
:100D9C003F0B030B14108C6E66EC07F0030EE82E61
:100DAC00FED700F01200046E8BCF02F0F90E021683
:100DBC0004C003F0030E0316D890033402108B6E9C
:100DCC008CCF02F0FC0E02160440E8423F0B030BE2
:100DDC0002108C6E6DEC07F0030EE82EFED700F0BF
:100DEC0012001A6E17B002D0899C01D0898C1A504F
:100DFC00F00B186E1A500F0B196E18380F0BBBEC4A
:100E0C0006F0060EE82EFED700D01950BBEC06F00B
:100E1C00060EE82EFED700D01200086E05B002D0E8
:100E2C00899C01D0898C0850F00B066E08500F0B72
:100E3C00076E06380F0BD9EC06F0060EE82EFED71F
:100E4C0000D00750D9EC06F0060EE82EFED700D0E5
:100E5C00120014501602F3CF18F0F4CF19F01450FE
:100E6C001702F350192615501602F350192618C004
:100E7C0014F019C015F01200000EB86E000EB96E09
:100E8C008996899892869288460E626E460E616E9D
:100E9C00110EB76E12008B9E948ECF0EAF6E000E9D
:100EAC00B06EAA86AC84AB88AB8EAC9A12009EAAAC
:100EBC0062EF07F064EF07F05DEF07F0AE50120041
:100ECC008B80030EE82EFED700F08B9012008B80E7
:0E0EDC00030EE82EFED700F08B9012000101ED
:020000040020DA
:08000000FFFFFFFFFFFFFFFF00
:020000040030CA
:0E000000FFC80F3E3C1D81FF0FC00FE00F40F8
:00000001FF
