:020000040000FA
:0400000048EF00F0D5
:060008003382A3EF05F0B6
:100018003380D8CF0CF0E8CF0DF0E0CF0EF0F6CF5C
:100028000FF0F7CF10F0F8CF11F0F5CF12F0F0A2E3
:1000380020EF00F022EF00F038EF00F00101CF517F
:10004800D8A429EF00F02BEF00F035EF00F0BBEC5F
:1000580004F0010E0101CE6F010ECF6F8C8435EFD5
:1000680000F0F09238EF00F012C0F5FF11C0F8FF71
:1000780010C0F7FF0FC0F6FF0EC0E0FF0DC0E8FF8D
:0C0088000CC0D8FF33901000E3EF06F02E
:0B030000004E6F204D61746368000028
:10030C00720ED36E8AEF01F0D3A48FEF01F091EF50
:10031C0001F08AEF01F08B9694868B9A948A8B98D5
:10032C0094988C9495948C969596000E9E6EF28E65
:10033C00F28CD08EF288F088F09EF198D4EC07F015
:10034C003FEC06F040EC05F0B6EC07F0000E0101B6
:10035C00D16F000ED26F790ED36F0F0ED46F780E53
:10036C00D56F0F0ED66F000ED76F000ED96FC70E5C
:10037C00D86F000EDA6F000EDB6F770EDC6F0F0E8E
:10038C00DD6F760EDE6F0F0EDF6F020EE06F000E6C
:10039C00E26FC70EE16FDA0E196E010E1A6ED3EC16
:1003AC0003F0D10E196E010E1A6ED3EC03F0000E91
:1003BC000101CD6F000EC86F0101D005D8A4E9EF83
:1003CC0001F0EBEF01F086EF03F013EF02F013EF07
:1003DC0002F0DA0E266E010E276ED10E286E010E7B
:1003EC00296E020E2A6E6CEC06F00101CD51010D46
:1003FC00000EF324D96E010EF420DA6E020EDF6EBD
:10040C00CD2BC90E136E010E146ECB0E156E010E94
:10041C00166E08EC07F013EF02F00101CABF22EFD1
:10042C0002F0D00EC95D070ECA59D8B020EF02F009
:10043C0022EF02F044EF02F0CCBF30EF02F0D00E0E
:10044C00CB5D070ECC59D8B02EEF02F030EF02F096
:10045C0044EF02F0D005D8A436EF02F038EF02F0EA
:10046C0044EF02F0CE51D8B43EEF02F040EF02F070
:10047C00EFEF01F044EF02F044EF02F0010ECE6F0B
:10048C00CF05D8A44CEF02F04EEF02F081EF02F052
:10049C006AEF02F06AEF02F0CD07DA0E266E010E5B
:1004AC00276ED10E286E010E296ECD51010D000E56
:1004BC00F324D96E010EF420DA6EDF50FF0A2A6E97
:1004CC006CEC06F06AEF02F00101CD51D8A471EF8B
:1004DC0002F073EF02F052EF02F075EF02F0DA0E59
:1004EC00216E010E226ED10E236E010E246EDFECF6
:1004FC0005F0E2EF01F0DA0E266E010E276ED10E3A
:10050C00286E010E296E000E2A6E6CEC06F00101AD
:10051C00CD51010D000EF324D96E010EF420DA6ECC
:10052C00000EDF6ECD2BC90E136E010E146ECB0EAA
:10053C00156E010E166E08EC07F0C80E0101CB25E6
:10054C002B6E000ECC212C6EC9512B5C2C50800ACA
:10055C002D6ECA51800A2D58D8B0B7EF02F0B9EF02
:10056C0002F012EF03F0C82BEDEF02F0C90E136E80
:10057C00010E146ECB0E156E010E166E08EC07F004
:10058C00030E0101C819D8A4CEEF02F0D0EF02F08F
:10059C00EAEF02F0DA0E266E010E276ED10E286EEF
:1005AC00010E296E020E2A6E6CEC06F00101CD5183
:1005BC00010D000EF324D96E010EF420DA6E020E3A
:1005CC00DF6ECD2BEAEF02F0C82BEDEF02F0C80E78
:1005DC00CB252B6E000ECC212C6EC9512B5C2C50D4
:1005EC00800A2D6ECA51800A2D58D8B000EF03F046
:1005FC0002EF03F00EEF03F0030EC86508EF03F0F3
:10060C000AEF03F0BCEF02F00EEF03F00EEF03F075
:10061C00000EC86FE2EF01F0C80EC9252B6E000E5C
:10062C00CA212C6ECB512B5C2C50800A2D6ECC51D8
:10063C00800A2D58D8B025EF03F027EF03F0E2EF36
:10064C0001F0C82B5BEF03F0C90E136E010E146E94
:10065C00CB0E156E010E166E08EC07F0030E0101A1
:10066C00C819D8A43CEF03F03EEF03F058EF03F0A9
:10067C00DA0E266E010E276ED10E286E010E296E33
:10068C00010E2A6E6CEC06F00101CD51010D000E2D
:10069C00F324D96E010EF420DA6E010EDF6ECD2B31
:1006AC0058EF03F0C82B5BEF03F0C80EC9252B6E77
:1006BC00000ECA212C6ECB512B5C2C50800A2D6E57
:1006CC00CC51800A2D58D8B06EEF03F070EF03F0C8
:1006DC007CEF03F0030EC86576EF03F078EF03F0C0
:1006EC002AEF03F07CEF03F07CEF03F0000EC86FF1
:1006FC00E2EF01F0E2EF01F0E2EF01F0E2EF01F0E6
:10070C00E305D8A48CEF03F08EEF03F0E2EF01F0D9
:10071C00DA0E216E010E226ED10E236E010E246EA6
:10072C00DFEC05F0000E0101E36F8C94ABEF03F0EE
:10073C00CD07CD51010D000EF324D96E010EF4201E
:10074C00DA6E000EDF6EABEF03F0CD51D8A4B1EF33
:10075C0003F0B3EF03F09EEF03F0B5EF03F0000EE0
:10076C00CA6F000EC96F000ECC6F000ECB6FDA0E85
:10077C00196E010E1A6ED3EC03F0D10E196E010E28
:10078C001A6ED3EC03F0E2EF01F0E2EF01F0E2EFCE
:10079C0001F0E2EF01F048EF00F019C0D9FF1AC0E8
:1007AC00DAFFDF501B6E1B50136E146A20EE07F03D
:1007BC001950D9261A50DA22DECF15F0DDCF16F0FB
:1007CC00A1EC07F013C01FF014C020F020EE01F0D4
:1007DC001950D9261A50DA22DF50D8B4F8EF03F0AA
:1007EC00FAEF03F030EF04F01FC01BF020C01CF038
:1007FC00090E1D6E1C341C321B321D2E00EF04F032
:10080C001F501B2620501C22070E1E6E1C341C323F
:10081C001B321E2E0CEF04F01BC01FF01CC020F06E
:10082C0020EE07F01950D9261A50DA22DECF1BF031
:10083C00DDCF1CF01FC01DF020C01EF01D1E1E1EA3
:10084C001D4A1E2A1B501D241F6E1C501E20206E7C
:10085C004EEF04F01FC01BF020C01CF0090E1D6EE3
:10086C001C341C321B321D2E36EF04F01F501B267D
:10087C0020501C22070E1E6E1C341C321B321E2EE6
:10088C0042EF04F01BC01FF01CC020F04EEF04F030
:10089C001FC01BF020C01CF0D8901B361C36D89003
:1008AC001B361C361BC01FF01CC020F020EE02F0C3
:1008BC001950D9261A50DA22DECF1BF0DDCF1CF0EE
:1008CC001BC0D9FF1CC0DAFF1FC0DFFF20EE04F0F5
:1008DC001950D9261A50DA22DECF1BF0DDCF1CF0CE
:1008EC001BC0D9FF1CC0DAFF20503F0BDF6E20EE7F
:1008FC0001F01950D9261A50DA22DF50D8B489EFFA
:10090C0004F08BEF04F0A2EF04F020EE06F0195087
:10091C00D9261A50DA22DF501B6E010E1C6E1B2AD0
:10092C009AEF04F0D8901C361B2E98EF04F01C5054
:10093C008A108A6EBAEF04F020EE06F01950D92610
:10094C001A50DA22DF501B6E010E1C6E1B2AB1EFFF
:10095C0004F0D8901C361B2EAFEF04F01C50FF0A8D
:10096C008A148A6EBAEF04F01200C5EC07F02E6EF2
:10097C00020E2E18D8A4C5EF04F0C7EF04F03FEF19
:10098C0005F032EF05F032EF05F0C5EC07F02E6EF6
:10099C000D0E3260D4EF04F0D6EF04F032EF05F018
:1009AC00010E056E2E5085EC07F0400E2E64E1EF23
:1009BC0004F0E3EF04F0E8EF04F02E50C90F2E6EB4
:1009CC00EBEF04F02E50300A2E6E2E503010306E9D
:1009DC0032A0F3EF04F0F5EF04F0FAEF04F0303846
:1009EC00F00B306E2CEF05F00B0E326000EF05F0C3
:1009FC0002EF05F007EF05F02F5030182F6E28EF9F
:100A0C0005F030502F18D8A40EEF05F010EF05F0BC
:100A1C001BEF05F0020EBCEC06F0040E096E030E83
:100A2C000A6E94EC06F028EF05F0020EBCEC06F012
:100A3C00010E096E030E0A6E94EC06F028EF05F019
:100A4C0028EF05F0000E306E2CEF05F03228326ED8
:100A5C0032EF05F032EF05F00A0E2E18D8A439EF5C
:100A6C0005F03BEF05F0CBEF04F03FEF05F03FEF67
:100A7C0005F01200899C929C8B9094908B9294928E
:100A8C008B9494948C9095908C929592340E1A6EC3
:100A9C00F20EE82EFED71A2EFCD7030E2DEC07F023
:100AAC000D0E1A6EFC0EE82EFED71A2EFCD7030E76
:100ABC002DEC07F0850EE82EFED700F0030E2DEC82
:100ACC0007F0210EE82EFED700F0020E2DEC07F0F9
:100ADC00210EE82EFED700F0000E166E280E69ECE3
:100AEC0007F0210EE82EFED700F0000E166E080E51
:100AFC0069EC07F0210EE82EFED700F0000E166E02
:100B0C00010E69EC07F00D0E1A6EFC0EE82EFED7E6
:100B1C001A2EFCD7000E166E060E69EC07F0210E8D
:100B2C00E82EFED700F0000E166E0C0E69EC07F0E6
:100B3C00210EE82EFED700F01200F2A2A8EF05F06D
:100B4C00AAEF05F0DDEF05F0312A1E0E3118D8A4FE
:100B5C00B2EF05F0B4EF05F0DDEF05F0000E01018A
:100B6C00CE6F000E316E000ECF6FD051D8B4C1EFE6
:100B7C0005F0C4EF05F0010EC5EF05F0000ED06FC7
:100B8C00010EE36F8BA8CDEF05F0D1EF05F0016AF4
:100B9C00012AD2EF05F0016A013A8B500118EF0BD4
:100BAC0001188B6EF292DDEF05F0DDEF05F033925C
:100BBC00110000EF06F021C019F022C01AF0D3EC9E
:100BCC0003F023C019F024C01AF0D3EC03F023C0B7
:100BDC00D9FF24C0DAFFDF060D0E256EFC0EE82EC1
:100BEC00FED7252EFCD721C0D9FF22C0DAFFDF06A5
:100BFC0000EF06F021C0D9FF22C0DAFFDF50D8A4E5
:100C0C000AEF06F00CEF06F0E1EF05F00EEF06F040
:100C1C00120030EF06F021C019F022C01AF0D3EC0C
:100C2C0003F023C019F024C01AF0D3EC03F023C056
:100C3C00D9FF24C0DAFFDF2A0D0E256EFC0EE82E3C
:100C4C00FED7252EFCD721C0D9FF22C0DAFFDF2A20
:100C5C0030EF06F021C0D9FF22C0DAFF500EDF645E
:100C6C003AEF06F03CEF06F011EF06F03EEF06F01F
:100C7C0012008A9093908A9293928A9493948A9673
:100C8C009396000E7F6E800E7E6E6F0E6F6E000E52
:100C9C006E6EC70E7B6E000E7A6E000E796E000EB5
:100CAC00786E000E776E000E766E000E756E000E6E
:100CBC00746E000E736E000E726E8F0E796E010ED6
:100CCC00786E8F0E776E010E766E120020EE01F0AC
:100CDC002650D9262750DA22D8902A30010BDF6E05
:100CEC0020EE01F02850D9262950DA222A50010B87
:100CFC00DF6E26C021F027C022F028C023F029C0C7
:100D0C0024F00FEC06F026C021F027C022F028C0FA
:100D1C0023F029C024F0DFEC05F01200ABEF06F055
:100D2C00010E056E09C0F6FF0AC0F7FF0800F5506A
:100D3C0085EC07F0094A0A2A820E0B6EDE0EE82EAD
:100D4C00FED70B2EFCD7ABEF06F009C0F6FF0AC09E
:100D5C00F7FF0800F5500009D8A4B7EF06F0B9EF7B
:100D6C0006F096EF06F0BBEF06F01200096E0904D0
:100D7C00D8A4C3EF06F0C5EF06F0CCEF06F0000EDA
:100D8C00056E800E85EC07F0DEEF06F0020E0918FA
:100D9C00D8A4D3EF06F0D5EF06F0DEEF06F0000E88
:100DAC00056EC00E85EC07F0DEEF06F0DEEF06F008
:100DBC00210EE82EFED700F01200DD0EF66E0F0E9F
:100DCC00F76E000EF86E0900F5CFE3F1DC0EF66E4F
:100DDC000F0EF76E000EF86E0900F5CF32F001EE33
:100DEC00CEF0150EEE6AE806FDE1316A306A2F6A24
:100DFC002E6A33903392000EF86E030EF76E0001DC
:100E0C0086EF01F06750186E176A6650196E1A6AF1
:100E1C001750191218501A1213C0D9FF14C0DAFF48
:100E2C0019C0DEFF1AC0DDFF6550186E176A6450DA
:100E3C00196E1A6A1750191218501A1215C0D9FFC8
:100E4C0016C0DAFF19C0DEFF1AC0DDFF1200156EE6
:100E5C008BCF13F0F90E131615C014F0030E1416E5
:100E6C00D890143413108B6E8CCF13F0FC0E131619
:100E7C001540E8423F0B030B13108C6EE0EC07F0AF
:100E8C00030EE82EFED700F01200046E8BCF02F09A
:100E9C00F90E021604C003F0030E0316D8900334A7
:100EAC0002108B6E8CCF02F0FC0E02160440E8424E
:100EBC003F0B030B02108C6EE7EC07F0030EE82ED1
:100ECC00FED700F01200196E16B002D0899C01D02A
:100EDC00898C1950F00B176E19500F0B186E1738B0
:100EEC000F0B2DEC07F0060EE82EFED700D0185095
:100EFC002DEC07F0060EE82EFED700D01200086E7F
:100F0C0005B002D0899C01D0898C0850F00B066E7C
:100F1C0008500F0B076E06380F0B4BEC07F0060E44
:100F2C00E82EFED700D007504BEC07F0060EE82E4B
:100F3C00FED700D0120013501502F3CF17F0F4CFE8
:100F4C0018F013501602F350182614501502F350D3
:100F5C00182617C013F018C014F0B5EF07F01200E4
:100F6C00000EB86E000EB96E89969286899892889A
:100F7C00460E626E460E616E110EB76E1200C7EF12
:100F8C0007F09EAACCEF07F0CEEF07F0C7EF07F003
:100F9C00D0EF07F0AE50D3EF07F012008B9E948E7B
:100FAC00CF0EAF6E000EB06EAA86AC84AB88AB8E43
:100FBC00AC9A12008B80030EE82EFED700F08B90BB
:100FCC0012008B80030EE82EFED700F08B901200DF
:020FDC00010111
:020000040020DA
:08000000FFFFFFFFFFFFFFFF00
:020000040030CA
:0E000000FFC80F3E3C1D81FF0FC00FE00F40F8
:00000001FF
